{"abi":[{"type":"constructor","inputs":[{"name":"_intentManager","type":"address","internalType":"address"}],"stateMutability":"nonpayable"},{"type":"function","name":"admin","inputs":[],"outputs":[{"name":"","type":"address","internalType":"address"}],"stateMutability":"view"},{"type":"function","name":"curatorWhitelist","inputs":[{"name":"","type":"address","internalType":"address"}],"outputs":[{"name":"","type":"bool","internalType":"bool"}],"stateMutability":"view"},{"type":"function","name":"executeIntent","inputs":[{"name":"intentId","type":"uint256","internalType":"uint256"},{"name":"agent","type":"address","internalType":"address"},{"name":"user","type":"address","internalType":"address"},{"name":"token","type":"address","internalType":"address"},{"name":"amount","type":"uint256","internalType":"uint256"},{"name":"validFrom","type":"uint256","internalType":"uint256"},{"name":"expiry","type":"uint256","internalType":"uint256"},{"name":"intent","type":"bytes","internalType":"bytes"},{"name":"vaults","type":"address[]","internalType":"address[]"},{"name":"depositAmounts","type":"uint256[]","internalType":"uint256[]"}],"outputs":[],"stateMutability":"nonpayable"},{"type":"function","name":"getExecutionFee","inputs":[{"name":"token","type":"address","internalType":"address"}],"outputs":[{"name":"","type":"uint256","internalType":"uint256"}],"stateMutability":"view"},{"type":"function","name":"intentExecutionFee","inputs":[{"name":"","type":"address","internalType":"address"}],"outputs":[{"name":"","type":"uint256","internalType":"uint256"}],"stateMutability":"view"},{"type":"function","name":"intentManager","inputs":[],"outputs":[{"name":"","type":"address","internalType":"contract IIntentManager"}],"stateMutability":"view"},{"type":"function","name":"isWhitelistedCurator","inputs":[{"name":"curator","type":"address","internalType":"address"}],"outputs":[{"name":"","type":"bool","internalType":"bool"}],"stateMutability":"view"},{"type":"function","name":"isWhitelistedVault","inputs":[{"name":"vault","type":"address","internalType":"address"}],"outputs":[{"name":"","type":"bool","internalType":"bool"}],"stateMutability":"view"},{"type":"function","name":"redeem","inputs":[{"name":"vault","type":"address","internalType":"contract IERC4626"},{"name":"shares","type":"uint256","internalType":"uint256"},{"name":"receiver","type":"address","internalType":"address"},{"name":"owner","type":"address","internalType":"address"}],"outputs":[{"name":"assets","type":"uint256","internalType":"uint256"}],"stateMutability":"nonpayable"},{"type":"function","name":"setAdmin","inputs":[{"name":"newAdmin","type":"address","internalType":"address"}],"outputs":[],"stateMutability":"nonpayable"},{"type":"function","name":"setIntentExecutionFee","inputs":[{"name":"token","type":"address","internalType":"address"},{"name":"fee","type":"uint256","internalType":"uint256"}],"outputs":[],"stateMutability":"nonpayable"},{"type":"function","name":"setIntentManager","inputs":[{"name":"_intentManager","type":"address","internalType":"address"}],"outputs":[],"stateMutability":"nonpayable"},{"type":"function","name":"vaultWhitelist","inputs":[{"name":"","type":"address","internalType":"address"}],"outputs":[{"name":"","type":"bool","internalType":"bool"}],"stateMutability":"view"},{"type":"function","name":"whitelistCurator","inputs":[{"name":"curator","type":"address","internalType":"address"},{"name":"isWhitelisted","type":"bool","internalType":"bool"}],"outputs":[],"stateMutability":"nonpayable"},{"type":"function","name":"whitelistVault","inputs":[{"name":"vault","type":"address","internalType":"address"},{"name":"isWhitelisted","type":"bool","internalType":"bool"}],"outputs":[],"stateMutability":"nonpayable"},{"type":"function","name":"withdraw","inputs":[{"name":"vault","type":"address","internalType":"contract IERC4626"},{"name":"assets","type":"uint256","internalType":"uint256"},{"name":"receiver","type":"address","internalType":"address"},{"name":"owner","type":"address","internalType":"address"}],"outputs":[{"name":"shares","type":"uint256","internalType":"uint256"}],"stateMutability":"nonpayable"},{"type":"error","name":"AddressEmptyCode","inputs":[{"name":"target","type":"address","internalType":"address"}]},{"type":"error","name":"AddressInsufficientBalance","inputs":[{"name":"account","type":"address","internalType":"address"}]},{"type":"error","name":"FailedInnerCall","inputs":[]},{"type":"error","name":"SafeERC20FailedOperation","inputs":[{"name":"token","type":"address","internalType":"address"}]}],"bytecode":{"object":"0x6080604052348015600f57600080fd5b5060405161136f38038061136f833981016040819052602c91605e565b60008054336001600160a01b031991821617909155600180549091166001600160a01b0392909216919091179055608c565b600060208284031215606f57600080fd5b81516001600160a01b0381168114608557600080fd5b9392505050565b6112d48061009b6000396000f3fe608060405234801561001057600080fd5b50600436106101005760003560e01c8063953a6cc011610097578063e6e66c6811610066578063e6e66c6814610282578063f05e5d4c14610295578063f851a440146102c1578063fea53be1146102d457600080fd5b8063953a6cc01461020d578063a2ce277314610230578063dfcd412e1461025c578063e3b804971461026f57600080fd5b806350fe78c6116100d357806350fe78c61461017857806354520642146101af57806362909681146101cf578063704b6c02146101fa57600080fd5b806327421971146101055780632c0f42ea1461011a57806339daa1b21461012d57806346ee8a7414610165575b600080fd5b610118610113366004610db7565b6102e7565b005b610118610128366004610f6b565b610336565b61015061013b366004611060565b60026020526000908152604090205460ff1681565b60405190151581526020015b60405180910390f35b610118610173366004611060565b610829565b6101a1610186366004611060565b6001600160a01b031660009081526004602052604090205490565b60405190815260200161015c565b6101a16101bd366004611060565b60046020526000908152604090205481565b6001546101e2906001600160a01b031681565b6040516001600160a01b03909116815260200161015c565b610118610208366004611060565b61089b565b61015061021b366004611060565b60036020526000908152604090205460ff1681565b61015061023e366004611060565b6001600160a01b031660009081526002602052604090205460ff1690565b6101a161026a36600461107d565b61090d565b61011861027d3660046110de565b6109fd565b6101186102903660046110de565b610a78565b6101506102a3366004611060565b6001600160a01b031660009081526003602052604090205460ff1690565b6000546101e2906001600160a01b031681565b6101a16102e236600461107d565b610af3565b6000546001600160a01b0316331461031a5760405162461bcd60e51b815260040161031190611117565b60405180910390fd5b6001600160a01b03909116600090815260046020526040902055565b3360009081526003602052604090205460ff1661039f5760405162461bcd60e51b815260206004820152602160248201527f526f757465723a204f6e6c792077686974656c69737465642063757261746f726044820152607360f81b6064820152608401610311565b600081518351146103ea5760405162461bcd60e51b8152602060048201526015602482015274149bdd5d195c8e88125b9d985b1a59081a5b9c1d5d605a1b6044820152606401610311565b6001546040516326ea015d60e01b81526001600160a01b03909116906326ea015d9061042a908f908f908f908f908f908f908f908f908f90600401611143565b600060405180830381600087803b15801561044457600080fd5b505af1158015610458573d6000803e3d6000fd5b5050506001600160a01b038a1660009081526004602052604090205461047f9150826111b7565b6001600160a01b038a166000818152600460205260409020549192506104a6918d90610b9a565b60005b83518110156107b357600260008583815181106104c8576104c86111d8565b6020908102919091018101516001600160a01b031682528101919091526040016000205460ff1661053b5760405162461bcd60e51b815260206004820152601d60248201527f526f757465723a205661756c74206e6f742077686974656c69737465640000006044820152606401610311565b83818151811061054d5761054d6111d8565b60200260200101516001600160a01b03166338d52e0f6040518163ffffffff1660e01b8152600401602060405180830381865afa158015610592573d6000803e3d6000fd5b505050506040513d601f19601f820116820180604052508101906105b691906111ee565b6001600160a01b03168a6001600160a01b0316146106165760405162461bcd60e51b815260206004820152601c60248201527f526f757465723a20546f6b656e20213d207661756c74206173736574000000006044820152606401610311565b828181518110610628576106286111d8565b60200260200101518261063b91906111b7565b9150896001600160a01b031663095ea7b385838151811061065e5761065e6111d8565b6020026020010151858481518110610678576106786111d8565b60200260200101516040518363ffffffff1660e01b81526004016106b19291906001600160a01b03929092168252602082015260400190565b6020604051808303816000875af11580156106d0573d6000803e3d6000fd5b505050506040513d601f19601f820116820180604052508101906106f4919061120b565b50838181518110610707576107076111d8565b60200260200101516001600160a01b0316636e553f6584838151811061072f5761072f6111d8565b60200260200101518d6040518363ffffffff1660e01b81526004016107679291909182526001600160a01b0316602082015260400190565b6020604051808303816000875af1158015610786573d6000803e3d6000fd5b505050506040513d601f19601f820116820180604052508101906107aa9190611228565b506001016104a9565b5087811461081b5760405162461bcd60e51b815260206004820152602f60248201527f526f757465723a20546f74616c20616d6f756e742070726f636573736564202160448201526e0f481a5b9d195b9d08185b5bdd5b9d608a1b6064820152608401610311565b505050505050505050505050565b6000546001600160a01b031633146108535760405162461bcd60e51b815260040161031190611117565b6001600160a01b0381166108795760405162461bcd60e51b815260040161031190611241565b600180546001600160a01b0319166001600160a01b0392909216919091179055565b6000546001600160a01b031633146108c55760405162461bcd60e51b815260040161031190611117565b6001600160a01b0381166108eb5760405162461bcd60e51b815260040161031190611241565b600080546001600160a01b0319166001600160a01b0392909216919091179055565b6001600160a01b038416600090815260026020526040812054859060ff166109775760405162461bcd60e51b815260206004820152601f60248201527f526f757465723a204f6e6c792077686974656c6973746564207661756c7473006044820152606401610311565b604051632d182be560e21b8152600481018690526001600160a01b038581166024830152848116604483015287169063b460af94906064015b6020604051808303816000875af11580156109cf573d6000803e3d6000fd5b505050506040513d601f19601f820116820180604052508101906109f39190611228565b9695505050505050565b6000546001600160a01b03163314610a275760405162461bcd60e51b815260040161031190611117565b6001600160a01b038216610a4d5760405162461bcd60e51b815260040161031190611241565b6001600160a01b03919091166000908152600360205260409020805460ff1916911515919091179055565b6000546001600160a01b03163314610aa25760405162461bcd60e51b815260040161031190611117565b6001600160a01b038216610ac85760405162461bcd60e51b815260040161031190611241565b6001600160a01b03919091166000908152600260205260409020805460ff1916911515919091179055565b6001600160a01b038416600090815260026020526040812054859060ff16610b5d5760405162461bcd60e51b815260206004820152601f60248201527f526f757465723a204f6e6c792077686974656c6973746564207661756c7473006044820152606401610311565b604051635d043b2960e11b8152600481018690526001600160a01b038581166024830152848116604483015287169063ba087652906064016109b0565b604080516001600160a01b038416602482015260448082018490528251808303909101815260649091019091526020810180516001600160e01b031663a9059cbb60e01b179052610bec908490610bf1565b505050565b6000610c066001600160a01b03841683610c54565b90508051600014158015610c2b575080806020019051810190610c29919061120b565b155b15610bec57604051635274afe760e01b81526001600160a01b0384166004820152602401610311565b6060610c6283836000610c6b565b90505b92915050565b606081471015610c905760405163cd78605960e01b8152306004820152602401610311565b600080856001600160a01b03168486604051610cac919061126f565b60006040518083038185875af1925050503d8060008114610ce9576040519150601f19603f3d011682016040523d82523d6000602084013e610cee565b606091505b5091509150610cfe868383610d0a565b925050505b9392505050565b606082610d1f57610d1a82610d66565b610d03565b8151158015610d3657506001600160a01b0384163b155b15610d5f57604051639996b31560e01b81526001600160a01b0385166004820152602401610311565b5080610d03565b805115610d765780518082602001fd5b604051630a12f52160e11b815260040160405180910390fd5b50565b6001600160a01b0381168114610d8f57600080fd5b8035610db281610d92565b919050565b60008060408385031215610dca57600080fd5b8235610dd581610d92565b946020939093013593505050565b60008083601f840112610df557600080fd5b50813567ffffffffffffffff811115610e0d57600080fd5b602083019150836020828501011115610e2557600080fd5b9250929050565b634e487b7160e01b600052604160045260246000fd5b604051601f8201601f1916810167ffffffffffffffff81118282101715610e6b57610e6b610e2c565b604052919050565b600067ffffffffffffffff821115610e8d57610e8d610e2c565b5060051b60200190565b600082601f830112610ea857600080fd5b8135610ebb610eb682610e73565b610e42565b8082825260208201915060208360051b860101925085831115610edd57600080fd5b602085015b83811015610f03578035610ef581610d92565b835260209283019201610ee2565b5095945050505050565b600082601f830112610f1e57600080fd5b8135610f2c610eb682610e73565b8082825260208201915060208360051b860101925085831115610f4e57600080fd5b602085015b83811015610f03578035835260209283019201610f53565b60008060008060008060008060008060006101408c8e031215610f8d57600080fd5b8b359a50610f9d60208d01610da7565b9950610fab60408d01610da7565b9850610fb960608d01610da7565b975060808c0135965060a08c0135955060c08c0135945060e08c013567ffffffffffffffff811115610fea57600080fd5b610ff68e828f01610de3565b9095509350506101008c013567ffffffffffffffff81111561101757600080fd5b6110238e828f01610e97565b9250506101208c013567ffffffffffffffff81111561104157600080fd5b61104d8e828f01610f0d565b9150509295989b509295989b9093969950565b60006020828403121561107257600080fd5b8135610d0381610d92565b6000806000806080858703121561109357600080fd5b843561109e81610d92565b93506020850135925060408501356110b581610d92565b915060608501356110c581610d92565b939692955090935050565b8015158114610d8f57600080fd5b600080604083850312156110f157600080fd5b82356110fc81610d92565b9150602083013561110c816110d0565b809150509250929050565b6020808252601290820152712937baba32b91d1027b7363c9020b236b4b760711b604082015260600190565b8981526001600160a01b0389811660208301528881166040830152871660608201526080810186905260a0810185905260c0810184905261010060e0820181905281018290528183610120830137600081830161012090810191909152601f909201601f1916010198975050505050505050565b80820180821115610c6557634e487b7160e01b600052601160045260246000fd5b634e487b7160e01b600052603260045260246000fd5b60006020828403121561120057600080fd5b8151610d0381610d92565b60006020828403121561121d57600080fd5b8151610d03816110d0565b60006020828403121561123a57600080fd5b5051919050565b602080825260149082015273526f757465723a207a65726f206164647265737360601b604082015260600190565b6000825160005b818110156112905760208186018101518583015201611276565b50600092019182525091905056fea2646970667358221220ed88166e0e9d3177901ca6440056a857c6f7dce9ab7153e6ec761f7c7d7851c064736f6c634300081a0033","linkReferences":{}},"methodIdentifiers":{"admin()":"f851a440","curatorWhitelist(address)":"953a6cc0","executeIntent(uint256,address,address,address,uint256,uint256,uint256,bytes,address[],uint256[])":"2c0f42ea","getExecutionFee(address)":"50fe78c6","intentExecutionFee(address)":"54520642","intentManager()":"62909681","isWhitelistedCurator(address)":"f05e5d4c","isWhitelistedVault(address)":"a2ce2773","redeem(address,uint256,address,address)":"fea53be1","setAdmin(address)":"704b6c02","setIntentExecutionFee(address,uint256)":"27421971","setIntentManager(address)":"46ee8a74","vaultWhitelist(address)":"39daa1b2","whitelistCurator(address,bool)":"e3b80497","whitelistVault(address,bool)":"e6e66c68","withdraw(address,uint256,address,address)":"dfcd412e"},"id":6}