{"abi":[{"type":"constructor","inputs":[],"stateMutability":"nonpayable"},{"type":"function","name":"admin","inputs":[],"outputs":[{"name":"","type":"address","internalType":"address"}],"stateMutability":"view"},{"type":"function","name":"createIntent","inputs":[{"name":"_token","type":"address","internalType":"address"},{"name":"_amount","type":"uint256","internalType":"uint256"},{"name":"_validFrom","type":"uint256","internalType":"uint256"},{"name":"_expiry","type":"uint256","internalType":"uint256"},{"name":"_intent","type":"bytes","internalType":"bytes"}],"outputs":[{"name":"intentId","type":"uint256","internalType":"uint256"}],"stateMutability":"nonpayable"},{"type":"function","name":"executeIntent","inputs":[{"name":"_intentId","type":"uint256","internalType":"uint256"},{"name":"_agent","type":"address","internalType":"address"},{"name":"_user","type":"address","internalType":"address"},{"name":"_token","type":"address","internalType":"address"},{"name":"_amount","type":"uint256","internalType":"uint256"},{"name":"_validFrom","type":"uint256","internalType":"uint256"},{"name":"_expiry","type":"uint256","internalType":"uint256"},{"name":"_intent","type":"bytes","internalType":"bytes"}],"outputs":[],"stateMutability":"nonpayable"},{"type":"function","name":"executorWhitelist","inputs":[{"name":"","type":"address","internalType":"address"}],"outputs":[{"name":"","type":"bool","internalType":"bool"}],"stateMutability":"view"},{"type":"function","name":"getIntent","inputs":[{"name":"_intentId","type":"uint256","internalType":"uint256"}],"outputs":[{"name":"","type":"tuple","internalType":"struct Intent","components":[{"name":"user","type":"address","internalType":"address"},{"name":"token","type":"address","internalType":"address"},{"name":"agent","type":"address","internalType":"address"},{"name":"intentId","type":"uint256","internalType":"uint256"},{"name":"amount","type":"uint256","internalType":"uint256"},{"name":"validFrom","type":"uint256","internalType":"uint256"},{"name":"expiry","type":"uint256","internalType":"uint256"},{"name":"intentHash","type":"bytes32","internalType":"bytes32"},{"name":"state","type":"uint8","internalType":"enum IntentState"},{"name":"intent","type":"bytes","internalType":"bytes"}]}],"stateMutability":"view"},{"type":"function","name":"intentCount","inputs":[],"outputs":[{"name":"","type":"uint256","internalType":"uint256"}],"stateMutability":"view"},{"type":"function","name":"intents","inputs":[{"name":"","type":"uint256","internalType":"uint256"}],"outputs":[{"name":"user","type":"address","internalType":"address"},{"name":"token","type":"address","internalType":"address"},{"name":"agent","type":"address","internalType":"address"},{"name":"intentId","type":"uint256","internalType":"uint256"},{"name":"amount","type":"uint256","internalType":"uint256"},{"name":"validFrom","type":"uint256","internalType":"uint256"},{"name":"expiry","type":"uint256","internalType":"uint256"},{"name":"intentHash","type":"bytes32","internalType":"bytes32"},{"name":"state","type":"uint8","internalType":"enum IntentState"},{"name":"intent","type":"bytes","internalType":"bytes"}],"stateMutability":"view"},{"type":"function","name":"isValidIntent","inputs":[{"name":"_intentId","type":"uint256","internalType":"uint256"},{"name":"_user","type":"address","internalType":"address"},{"name":"_token","type":"address","internalType":"address"},{"name":"_amount","type":"uint256","internalType":"uint256"},{"name":"_validFrom","type":"uint256","internalType":"uint256"},{"name":"_expiry","type":"uint256","internalType":"uint256"},{"name":"_intent","type":"bytes","internalType":"bytes"}],"outputs":[{"name":"","type":"bool","internalType":"bool"}],"stateMutability":"view"},{"type":"function","name":"minExpiry","inputs":[],"outputs":[{"name":"","type":"uint256","internalType":"uint256"}],"stateMutability":"view"},{"type":"function","name":"minTokenAmount","inputs":[{"name":"","type":"address","internalType":"address"}],"outputs":[{"name":"","type":"uint256","internalType":"uint256"}],"stateMutability":"view"},{"type":"function","name":"reclaimTokens","inputs":[{"name":"_intentId","type":"uint256","internalType":"uint256"}],"outputs":[],"stateMutability":"nonpayable"},{"type":"function","name":"setMinExpiry","inputs":[{"name":"_minExpiry","type":"uint256","internalType":"uint256"}],"outputs":[],"stateMutability":"nonpayable"},{"type":"function","name":"setMinTokenAmount","inputs":[{"name":"_token","type":"address","internalType":"address"},{"name":"_minAmount","type":"uint256","internalType":"uint256"}],"outputs":[],"stateMutability":"nonpayable"},{"type":"function","name":"tokenWhitelist","inputs":[{"name":"","type":"address","internalType":"address"}],"outputs":[{"name":"","type":"bool","internalType":"bool"}],"stateMutability":"view"},{"type":"function","name":"whitelistExecutor","inputs":[{"name":"_executor","type":"address","internalType":"address"},{"name":"_isWhitelisted","type":"bool","internalType":"bool"}],"outputs":[],"stateMutability":"nonpayable"},{"type":"function","name":"whitelistToken","inputs":[{"name":"_token","type":"address","internalType":"address"},{"name":"_isWhitelisted","type":"bool","internalType":"bool"},{"name":"_minAmount","type":"uint256","internalType":"uint256"}],"outputs":[],"stateMutability":"nonpayable"},{"type":"event","name":"IntentCreated","inputs":[{"name":"user","type":"address","indexed":true,"internalType":"address"},{"name":"intentId","type":"uint256","indexed":true,"internalType":"uint256"},{"name":"token","type":"address","indexed":true,"internalType":"address"},{"name":"amount","type":"uint256","indexed":false,"internalType":"uint256"},{"name":"validFrom","type":"uint256","indexed":false,"internalType":"uint256"},{"name":"expiry","type":"uint256","indexed":false,"internalType":"uint256"},{"name":"intentHash","type":"bytes32","indexed":false,"internalType":"bytes32"},{"name":"intent","type":"bytes","indexed":false,"internalType":"bytes"}],"anonymous":false},{"type":"event","name":"IntentExecuted","inputs":[{"name":"intentId","type":"uint256","indexed":true,"internalType":"uint256"},{"name":"agent","type":"address","indexed":true,"internalType":"address"},{"name":"user","type":"address","indexed":true,"internalType":"address"},{"name":"intentHash","type":"bytes32","indexed":false,"internalType":"bytes32"},{"name":"token","type":"address","indexed":false,"internalType":"address"},{"name":"amount","type":"uint256","indexed":false,"internalType":"uint256"},{"name":"executedAt","type":"uint256","indexed":false,"internalType":"uint256"}],"anonymous":false},{"type":"event","name":"TokensReclaimed","inputs":[{"name":"intentId","type":"uint256","indexed":true,"internalType":"uint256"},{"name":"user","type":"address","indexed":true,"internalType":"address"},{"name":"token","type":"address","indexed":true,"internalType":"address"},{"name":"amount","type":"uint256","indexed":false,"internalType":"uint256"}],"anonymous":false},{"type":"error","name":"AddressEmptyCode","inputs":[{"name":"target","type":"address","internalType":"address"}]},{"type":"error","name":"AddressInsufficientBalance","inputs":[{"name":"account","type":"address","internalType":"address"}]},{"type":"error","name":"FailedInnerCall","inputs":[]},{"type":"error","name":"SafeERC20FailedOperation","inputs":[{"name":"token","type":"address","internalType":"address"}]}],"bytecode":{"object":"0x6080604052348015600f57600080fd5b50600280546001600160a01b03191633179055611b0c806100316000396000f3fe608060405234801561001057600080fd5b50600436106101005760003560e01c80637760da7f11610097578063cd5d820f11610066578063cd5d820f14610254578063e6fb6a2e14610267578063f70401ff14610270578063f851a4401461028357600080fd5b80637760da7f146101fb57806379e650621461020e578063906e277b14610221578063acc314ae1461024157600080fd5b806346a1a095116100d357806346a1a0951461016957806354ba7696146101925780635d698611146101c5578063753d7563146101d857600080fd5b80630b53c2b1146101055780630cdf90081461012b5780631bceb8d41461013457806326ea015d14610154575b600080fd5b6101186101133660046112c4565b6102ae565b6040519081526020015b60405180910390f35b61011860005481565b6101186101423660046113ab565b60066020526000908152604090205481565b61016761016236600461140f565b61062b565b005b61017c6101773660046114ae565b6108ae565b6040516101229a9998979695949392919061154f565b6101b56101a03660046113ab565b60046020526000908152604090205460ff1681565b6040519015158152602001610122565b6101676101d33660046115d3565b61099f565b6101b56101e63660046113ab565b60056020526000908152604090205460ff1681565b6101676102093660046114ae565b610a4a565b61016761021c36600461160a565b610c7c565b61023461022f3660046114ae565b610cfa565b6040516101229190611634565b61016761024f3660046116eb565b610e98565b6101676102623660046114ae565b610f4d565b61011860015481565b6101b561027e36600461172a565b610fcc565b600254610296906001600160a01b031681565b6040516001600160a01b039091168152602001610122565b600083831180156102bf5750428310155b6103105760405162461bcd60e51b815260206004820152601d60248201527f496e74656e744d616e616765723a20696e76616c69642065787069727900000060448201526064015b60405180910390fd5b60015461031d42856117cb565b101561036b5760405162461bcd60e51b815260206004820152601d60248201527f496e74656e744d616e616765723a2065787069727920746f6f206c6f770000006044820152606401610307565b6001600160a01b03861660009081526005602052604090205460ff166103a35760405162461bcd60e51b8152600401610307906117de565b6001600160a01b03861660009081526006602052604090205485101561040b5760405162461bcd60e51b815260206004820152601d60248201527f496e74656e744d616e616765723a20616d6f756e7420746f6f206c6f770000006044820152606401610307565b60008054908061041a83611822565b919050559050604051806101400160405280336001600160a01b03168152602001876001600160a01b0316815260200160006001600160a01b0316815260200182815260200186815260200185815260200184815260200133888888888860405160200161048d9695949392919061183b565b60408051601f19818403018152919052805160209182012082520160008152602090810184905260008381526003808352604091829020845181546001600160a01b03199081166001600160a01b039283161783559486015160018084018054881692841692909217909155938601516002808401805490971691909216179094556060850151918101919091556080840151600482015560a0840151600582015560c0840151600682015560e0840151600782015561010084015160088201805492949193909260ff191691849081111561056b5761056b6114c7565b021790555061012082015160098201906105859082611910565b5061059e9150506001600160a01b038716333088611009565b856001600160a01b031681336001600160a01b03167fac7a7ee1756e93103e0bca712b702ea0cd98c10fa1c1221547e15e374d637dec888888338d8d8d8d8d6040516020016105f29695949392919061183b565b604051602081830303815290604052805190602001208960405161061a9594939291906119cf565b60405180910390a495945050505050565b3360009081526004602052604090205460ff1661069b5760405162461bcd60e51b815260206004820152602860248201527f496e74656e744d616e616765723a204f6e6c792077686974656c69737465642060448201526732bc32b1baba37b960c11b6064820152608401610307565b600089815260036020526040812090548a118015906106c957506106c9816007015489898989898989611076565b6107155760405162461bcd60e51b815260206004820152601d60248201527f496e74656e744d616e616765723a20696e76616c696420696e74656e740000006044820152606401610307565b6000600882015460ff166002811115610730576107306114c7565b1461077d5760405162461bcd60e51b815260206004820152601e60248201527f496e74656e744d616e616765723a20496e61637469766520696e74656e7400006044820152606401610307565b80600501544210158015610795575080600601544211155b6107f95760405162461bcd60e51b815260206004820152602f60248201527f496e74656e744d616e616765723a20696e74656e742065787069726564202f2060448201526e32b0b9363c9032bc32b1baba34b7b760891b6064820152608401610307565b600881018054600260ff199091168117909155810180546001600160a01b0319166001600160a01b038b8116919091179091556004820154600183015461084392169033906110bb565b6007810154604080519182526001600160a01b038981166020840152908201889052426060830152808a1691908b16908c907ffa5125a53a6783a70fbe7d9e6a2f1e70ed50d9ff4c3d6d372e6ef9438494c8eb9060800160405180910390a450505050505050505050565b600360208190526000918252604090912080546001820154600283015493830154600484015460058501546006860154600787015460088801546009890180546001600160a01b03998a169b988a169a98909916989697959694959394929360ff9092169261091c90611888565b80601f016020809104026020016040519081016040528092919081815260200182805461094890611888565b80156109955780601f1061096a57610100808354040283529160200191610995565b820191906000526020600020905b81548152906001019060200180831161097857829003601f168201915b505050505090508a565b6002546001600160a01b031633146109c95760405162461bcd60e51b815260040161030790611a05565b6001600160a01b038216610a1f5760405162461bcd60e51b815260206004820152601b60248201527f496e74656e744d616e616765723a207a65726f206164647265737300000000006044820152606401610307565b6001600160a01b03919091166000908152600460205260409020805460ff1916911515919091179055565b600054811115610a9c5760405162461bcd60e51b815260206004820152601f60248201527f496e74656e744d616e616765723a20496e76616c696420696e74656e744964006044820152606401610307565b6000818152600360205260409020546001600160a01b03163314610b025760405162461bcd60e51b815260206004820152601f60248201527f496e74656e744d616e616765723a204e6f7420496e74656e74206f776e6572006044820152606401610307565b60008181526003602052604081206008015460ff166002811115610b2857610b286114c7565b14610b755760405162461bcd60e51b815260206004820152601e60248201527f496e74656e744d616e616765723a20496e61637469766520696e74656e7400006044820152606401610307565b6000818152600360205260409020600601544211610bdf5760405162461bcd60e51b815260206004820152602160248201527f496e74656e744d616e616765723a20496e74656e74206e6f74206578706972656044820152601960fa1b6064820152608401610307565b600081815260036020526040902060088101805460ff191660019081179091556004820154910154610c1e916001600160a01b039091169033906110bb565b600081815260036020908152604091829020600181015460049091015492519283526001600160a01b031691339184917fdd15c2d8be434f94b66e4dfad8417c71518a39d44fd47516a94e7d7bd6299d2a910160405180910390a450565b6002546001600160a01b03163314610ca65760405162461bcd60e51b815260040161030790611a05565b6001600160a01b03821660009081526005602052604090205460ff16610cde5760405162461bcd60e51b8152600401610307906117de565b6001600160a01b03909116600090815260066020526040902055565b610d516040805161014081018252600080825260208201819052918101829052606081018290526080810182905260a0810182905260c0810182905260e08101829052906101008201908152602001606081525090565b60008281526003602081815260409283902083516101408101855281546001600160a01b03908116825260018301548116938201939093526002808301549093169481019490945291820154606084015260048201546080840152600582015460a0840152600682015460c0840152600782015460e0840152600882015461010084019160ff90911690811115610dea57610dea6114c7565b6002811115610dfb57610dfb6114c7565b8152602001600982018054610e0f90611888565b80601f0160208091040260200160405190810160405280929190818152602001828054610e3b90611888565b8015610e885780601f10610e5d57610100808354040283529160200191610e88565b820191906000526020600020905b815481529060010190602001808311610e6b57829003601f168201915b5050505050815250509050919050565b6002546001600160a01b03163314610ec25760405162461bcd60e51b815260040161030790611a05565b6001600160a01b038316610f185760405162461bcd60e51b815260206004820152601b60248201527f496e74656e744d616e616765723a207a65726f206164647265737300000000006044820152606401610307565b6001600160a01b03929092166000908152600560209081526040808320805460ff191694151594909417909355600690522055565b6002546001600160a01b03163314610f775760405162461bcd60e51b815260040161030790611a05565b60008111610fc75760405162461bcd60e51b815260206004820152601a60248201527f496e74656e744d616e616765723a207a65726f206578706972790000000000006044820152606401610307565b600155565b600080548911158015610ffc5750600089815260036020526040902060070154610ffc9089898989898989611076565b9998505050505050505050565b6040516001600160a01b0384811660248301528381166044830152606482018390526110709186918216906323b872dd906084015b604051602081830303815290604052915060e01b6020820180516001600160e01b0383818316178352505050506110f1565b50505050565b600088888888888888886040516020016110969796959493929190611a3c565b6040516020818303038152906040528051906020012014905098975050505050505050565b6040516001600160a01b038381166024830152604482018390526110ec91859182169063a9059cbb9060640161103e565b505050565b60006111066001600160a01b03841683611154565b9050805160001415801561112b5750808060200190518101906111299190611a9d565b155b156110ec57604051635274afe760e01b81526001600160a01b0384166004820152602401610307565b60606111628383600061116b565b90505b92915050565b6060814710156111905760405163cd78605960e01b8152306004820152602401610307565b600080856001600160a01b031684866040516111ac9190611aba565b60006040518083038185875af1925050503d80600081146111e9576040519150601f19603f3d011682016040523d82523d6000602084013e6111ee565b606091505b50915091506111fe86838361120a565b925050505b9392505050565b60608261121f5761121a82611266565b611203565b815115801561123657506001600160a01b0384163b155b1561125f57604051639996b31560e01b81526001600160a01b0385166004820152602401610307565b5080611203565b8051156112765780518082602001fd5b604051630a12f52160e11b815260040160405180910390fd5b50565b80356001600160a01b03811681146112a957600080fd5b919050565b634e487b7160e01b600052604160045260246000fd5b600080600080600060a086880312156112dc57600080fd5b6112e586611292565b9450602086013593506040860135925060608601359150608086013567ffffffffffffffff81111561131657600080fd5b8601601f8101881361132757600080fd5b803567ffffffffffffffff811115611341576113416112ae565b604051601f8201601f19908116603f0116810167ffffffffffffffff81118282101715611370576113706112ae565b6040528181528282016020018a101561138857600080fd5b816020840160208301376000602083830101528093505050509295509295909350565b6000602082840312156113bd57600080fd5b61116282611292565b60008083601f8401126113d857600080fd5b50813567ffffffffffffffff8111156113f057600080fd5b60208301915083602082850101111561140857600080fd5b9250929050565b60008060008060008060008060006101008a8c03121561142e57600080fd5b8935985061143e60208b01611292565b975061144c60408b01611292565b965061145a60608b01611292565b955060808a0135945060a08a0135935060c08a0135925060e08a013567ffffffffffffffff81111561148b57600080fd5b6114978c828d016113c6565b915080935050809150509295985092959850929598565b6000602082840312156114c057600080fd5b5035919050565b634e487b7160e01b600052602160045260246000fd5b600381106114fb57634e487b7160e01b600052602160045260246000fd5b9052565b60005b8381101561151a578181015183820152602001611502565b50506000910152565b6000815180845261153b8160208601602086016114ff565b601f01601f19169290920160200192915050565b6001600160a01b038b811682528a8116602083015289166040820152606081018890526080810187905260a0810186905260c0810185905260e0810184905261159c6101008201846114dd565b61014061012082015260006115b5610140830184611523565b9c9b505050505050505050505050565b801515811461128f57600080fd5b600080604083850312156115e657600080fd5b6115ef83611292565b915060208301356115ff816115c5565b809150509250929050565b6000806040838503121561161d57600080fd5b61162683611292565b946020939093013593505050565b6020815261164e6020820183516001600160a01b03169052565b6000602083015161166a60408401826001600160a01b03169052565b5060408301516001600160a01b03811660608401525060608301516080830152608083015160a083015260a083015160c083015260c083015160e083015260e08301516101008301526101008301516116c76101208401826114dd565b50610120830151610140808401526116e3610160840182611523565b949350505050565b60008060006060848603121561170057600080fd5b61170984611292565b92506020840135611719816115c5565b929592945050506040919091013590565b60008060008060008060008060e0898b03121561174657600080fd5b8835975061175660208a01611292565b965061176460408a01611292565b9550606089013594506080890135935060a0890135925060c089013567ffffffffffffffff81111561179557600080fd5b6117a18b828c016113c6565b999c989b5096995094979396929594505050565b634e487b7160e01b600052601160045260246000fd5b81810381811115611165576111656117b5565b60208082526024908201527f496e74656e744d616e616765723a20746f6b656e206e6f742077686974656c696040820152631cdd195960e21b606082015260800190565b600060018201611834576118346117b5565b5060010190565b6001600160a01b0387811682528616602082015260408101859052606081018490526080810183905260c060a0820181905260009061187c90830184611523565b98975050505050505050565b600181811c9082168061189c57607f821691505b6020821081036118bc57634e487b7160e01b600052602260045260246000fd5b50919050565b601f8211156110ec57806000526020600020601f840160051c810160208510156118e95750805b601f840160051c820191505b8181101561190957600081556001016118f5565b5050505050565b815167ffffffffffffffff81111561192a5761192a6112ae565b61193e816119388454611888565b846118c2565b6020601f821160018114611972576000831561195a5750848201515b600019600385901b1c1916600184901b178455611909565b600084815260208120601f198516915b828110156119a25787850151825560209485019460019092019101611982565b50848210156119c05786840151600019600387901b60f8161c191681555b50505050600190811b01905550565b85815284602082015283604082015282606082015260a0608082015260006119fa60a0830184611523565b979650505050505050565b60208082526019908201527f496e74656e744d616e616765723a204f6e6c792041646d696e00000000000000604082015260600190565b6001600160a01b0388811682528716602082015260408101869052606081018590526080810184905260c060a082018190528101829052818360e0830137600081830160e090810191909152601f909201601f191601019695505050505050565b600060208284031215611aaf57600080fd5b8151611203816115c5565b60008251611acc8184602087016114ff565b919091019291505056fea2646970667358221220abbf8a54e6ca194d848e64b06f1277e3511d087d8f52d5e3d8f12be0fd792a5564736f6c634300081a0033","linkReferences":{}},"methodIdentifiers":{"admin()":"f851a440","createIntent(address,uint256,uint256,uint256,bytes)":"0b53c2b1","executeIntent(uint256,address,address,address,uint256,uint256,uint256,bytes)":"26ea015d","executorWhitelist(address)":"54ba7696","getIntent(uint256)":"906e277b","intentCount()":"0cdf9008","intents(uint256)":"46a1a095","isValidIntent(uint256,address,address,uint256,uint256,uint256,bytes)":"f70401ff","minExpiry()":"e6fb6a2e","minTokenAmount(address)":"1bceb8d4","reclaimTokens(uint256)":"7760da7f","setMinExpiry(uint256)":"cd5d820f","setMinTokenAmount(address,uint256)":"79e65062","tokenWhitelist(address)":"753d7563","whitelistExecutor(address,bool)":"5d698611","whitelistToken(address,bool,uint256)":"acc314ae"},"id":6}